{
  "abi": [
    {
      "inputs": [
        {
          "internalType": "contract Poke",
          "name": "_poke",
          "type": "address"
        },
        {
          "internalType": "contract RegistryReceiverV0",
          "name": "_registryReceiver",
          "type": "address"
        }
      ],
      "stateMutability": "nonpayable",
      "type": "constructor"
    },
    {
      "inputs": [],
      "name": "AccountNotRegistered",
      "type": "error"
    },
    {
      "inputs": [],
      "name": "AlignmentVoteCooldown",
      "type": "error"
    },
    {
      "inputs": [],
      "name": "AlreadyVotedForThisInput",
      "type": "error"
    },
    {
      "inputs": [],
      "name": "AnotherPlayerHasControl",
      "type": "error"
    },
    {
      "inputs": [],
      "name": "AuctionHasNoBids",
      "type": "error"
    },
    {
      "inputs": [],
      "name": "AuctionInProgress",
      "type": "error"
    },
    {
      "inputs": [],
      "name": "AuctionIsOver",
      "type": "error"
    },
    {
      "inputs": [],
      "name": "GameNotActive",
      "type": "error"
    },
    {
      "inputs": [],
      "name": "InsufficientBalanceForBid",
      "type": "error"
    },
    {
      "inputs": [],
      "name": "InsufficientBalanceForRedeem",
      "type": "error"
    },
    {
      "inputs": [],
      "name": "InsufficientBidAmount",
      "type": "error"
    },
    {
      "inputs": [],
      "name": "InvalidButtonIndex",
      "type": "error"
    },
    {
      "anonymous": false,
      "inputs": [
        {
          "indexed": false,
          "internalType": "address",
          "name": "from",
          "type": "address"
        },
        {
          "indexed": false,
          "internalType": "bool",
          "name": "vote",
          "type": "bool"
        },
        {
          "indexed": false,
          "internalType": "int256",
          "name": "alignment",
          "type": "int256"
        }
      ],
      "name": "AlignmentVote",
      "type": "event"
    },
    {
      "anonymous": false,
      "inputs": [
        {
          "indexed": false,
          "internalType": "uint256",
          "name": "inputIndex",
          "type": "uint256"
        },
        {
          "indexed": false,
          "internalType": "address",
          "name": "from",
          "type": "address"
        },
        {
          "indexed": false,
          "internalType": "uint256",
          "name": "buttonIndex",
          "type": "uint256"
        }
      ],
      "name": "ButtonInput",
      "type": "event"
    },
    {
      "anonymous": false,
      "inputs": [
        {
          "indexed": false,
          "internalType": "address",
          "name": "from",
          "type": "address"
        },
        {
          "indexed": false,
          "internalType": "string",
          "name": "message",
          "type": "string"
        }
      ],
      "name": "Chat",
      "type": "event"
    },
    {
      "anonymous": false,
      "inputs": [
        {
          "indexed": false,
          "internalType": "address",
          "name": "from",
          "type": "address"
        }
      ],
      "name": "Control",
      "type": "event"
    },
    {
      "anonymous": false,
      "inputs": [
        {
          "indexed": false,
          "internalType": "uint256",
          "name": "inputIndex",
          "type": "uint256"
        },
        {
          "indexed": false,
          "internalType": "address",
          "name": "from",
          "type": "address"
        },
        {
          "indexed": false,
          "internalType": "uint256",
          "name": "buttonIndex",
          "type": "uint256"
        }
      ],
      "name": "InputVote",
      "type": "event"
    },
    {
      "anonymous": false,
      "inputs": [
        {
          "indexed": false,
          "internalType": "address",
          "name": "from",
          "type": "address"
        },
        {
          "indexed": false,
          "internalType": "uint256",
          "name": "amount",
          "type": "uint256"
        }
      ],
      "name": "NewControlBid",
      "type": "event"
    },
    {
      "anonymous": false,
      "inputs": [
        {
          "indexed": true,
          "internalType": "address",
          "name": "previousOwner",
          "type": "address"
        },
        {
          "indexed": true,
          "internalType": "address",
          "name": "newOwner",
          "type": "address"
        }
      ],
      "name": "OwnershipTransferred",
      "type": "event"
    },
    {
      "anonymous": false,
      "inputs": [
        {
          "indexed": false,
          "internalType": "address",
          "name": "from",
          "type": "address"
        },
        {
          "indexed": false,
          "internalType": "uint256",
          "name": "count",
          "type": "uint256"
        }
      ],
      "name": "RareCandy",
      "type": "event"
    },
    {
      "anonymous": false,
      "inputs": [
        {
          "components": [
            {
              "internalType": "bool",
              "name": "isActive",
              "type": "bool"
            },
            {
              "internalType": "uint256",
              "name": "alignmentDecayRate",
              "type": "uint256"
            },
            {
              "internalType": "uint256",
              "name": "alignmentVoteCooldown",
              "type": "uint256"
            },
            {
              "internalType": "uint256",
              "name": "chaosVoteReward",
              "type": "uint256"
            },
            {
              "internalType": "uint256",
              "name": "orderDuration",
              "type": "uint256"
            },
            {
              "internalType": "uint256",
              "name": "chaosInputRewardCooldown",
              "type": "uint256"
            },
            {
              "internalType": "uint256",
              "name": "chaosInputReward",
              "type": "uint256"
            },
            {
              "internalType": "uint256",
              "name": "orderInputReward",
              "type": "uint256"
            },
            {
              "internalType": "uint256",
              "name": "chatCost",
              "type": "uint256"
            },
            {
              "internalType": "uint256",
              "name": "rareCandyCost",
              "type": "uint256"
            },
            {
              "internalType": "uint256",
              "name": "controlAuctionDuration",
              "type": "uint256"
            },
            {
              "internalType": "uint256",
              "name": "controlDuration",
              "type": "uint256"
            }
          ],
          "indexed": false,
          "internalType": "struct EthPlaysV0.EthPlaysV0Config",
          "name": "config",
          "type": "tuple"
        }
      ],
      "name": "SetConfig",
      "type": "event"
    },
    {
      "inputs": [],
      "name": "alignment",
      "outputs": [
        {
          "internalType": "int256",
          "name": "",
          "type": "int256"
        }
      ],
      "stateMutability": "view",
      "type": "function"
    },
    {
      "inputs": [],
      "name": "controlAddress",
      "outputs": [
        {
          "internalType": "address",
          "name": "",
          "type": "address"
        }
      ],
      "stateMutability": "view",
      "type": "function"
    },
    {
      "inputs": [],
      "name": "controlAuctionEndTimestamp",
      "outputs": [
        {
          "internalType": "uint256",
          "name": "",
          "type": "uint256"
        }
      ],
      "stateMutability": "view",
      "type": "function"
    },
    {
      "inputs": [],
      "name": "controlAuctionStartTimestamp",
      "outputs": [
        {
          "internalType": "uint256",
          "name": "",
          "type": "uint256"
        }
      ],
      "stateMutability": "view",
      "type": "function"
    },
    {
      "inputs": [],
      "name": "endControlAuction",
      "outputs": [],
      "stateMutability": "nonpayable",
      "type": "function"
    },
    {
      "inputs": [],
      "name": "getConfig",
      "outputs": [
        {
          "components": [
            {
              "internalType": "bool",
              "name": "isActive",
              "type": "bool"
            },
            {
              "internalType": "uint256",
              "name": "alignmentDecayRate",
              "type": "uint256"
            },
            {
              "internalType": "uint256",
              "name": "alignmentVoteCooldown",
              "type": "uint256"
            },
            {
              "internalType": "uint256",
              "name": "chaosVoteReward",
              "type": "uint256"
            },
            {
              "internalType": "uint256",
              "name": "orderDuration",
              "type": "uint256"
            },
            {
              "internalType": "uint256",
              "name": "chaosInputRewardCooldown",
              "type": "uint256"
            },
            {
              "internalType": "uint256",
              "name": "chaosInputReward",
              "type": "uint256"
            },
            {
              "internalType": "uint256",
              "name": "orderInputReward",
              "type": "uint256"
            },
            {
              "internalType": "uint256",
              "name": "chatCost",
              "type": "uint256"
            },
            {
              "internalType": "uint256",
              "name": "rareCandyCost",
              "type": "uint256"
            },
            {
              "internalType": "uint256",
              "name": "controlAuctionDuration",
              "type": "uint256"
            },
            {
              "internalType": "uint256",
              "name": "controlDuration",
              "type": "uint256"
            }
          ],
          "internalType": "struct EthPlaysV0.EthPlaysV0Config",
          "name": "_config",
          "type": "tuple"
        }
      ],
      "stateMutability": "view",
      "type": "function"
    },
    {
      "inputs": [],
      "name": "inputIndex",
      "outputs": [
        {
          "internalType": "uint256",
          "name": "",
          "type": "uint256"
        }
      ],
      "stateMutability": "view",
      "type": "function"
    },
    {
      "inputs": [],
      "name": "owner",
      "outputs": [
        {
          "internalType": "address",
          "name": "",
          "type": "address"
        }
      ],
      "stateMutability": "view",
      "type": "function"
    },
    {
      "inputs": [],
      "name": "poke",
      "outputs": [
        {
          "internalType": "contract Poke",
          "name": "",
          "type": "address"
        }
      ],
      "stateMutability": "view",
      "type": "function"
    },
    {
      "inputs": [],
      "name": "registryReceiver",
      "outputs": [
        {
          "internalType": "contract RegistryReceiverV0",
          "name": "",
          "type": "address"
        }
      ],
      "stateMutability": "view",
      "type": "function"
    },
    {
      "inputs": [],
      "name": "renounceOwnership",
      "outputs": [],
      "stateMutability": "nonpayable",
      "type": "function"
    },
    {
      "inputs": [
        {
          "components": [
            {
              "internalType": "bool",
              "name": "isActive",
              "type": "bool"
            },
            {
              "internalType": "uint256",
              "name": "alignmentDecayRate",
              "type": "uint256"
            },
            {
              "internalType": "uint256",
              "name": "alignmentVoteCooldown",
              "type": "uint256"
            },
            {
              "internalType": "uint256",
              "name": "chaosVoteReward",
              "type": "uint256"
            },
            {
              "internalType": "uint256",
              "name": "orderDuration",
              "type": "uint256"
            },
            {
              "internalType": "uint256",
              "name": "chaosInputRewardCooldown",
              "type": "uint256"
            },
            {
              "internalType": "uint256",
              "name": "chaosInputReward",
              "type": "uint256"
            },
            {
              "internalType": "uint256",
              "name": "orderInputReward",
              "type": "uint256"
            },
            {
              "internalType": "uint256",
              "name": "chatCost",
              "type": "uint256"
            },
            {
              "internalType": "uint256",
              "name": "rareCandyCost",
              "type": "uint256"
            },
            {
              "internalType": "uint256",
              "name": "controlAuctionDuration",
              "type": "uint256"
            },
            {
              "internalType": "uint256",
              "name": "controlDuration",
              "type": "uint256"
            }
          ],
          "internalType": "struct EthPlaysV0.EthPlaysV0Config",
          "name": "_config",
          "type": "tuple"
        }
      ],
      "name": "setConfig",
      "outputs": [],
      "stateMutability": "nonpayable",
      "type": "function"
    },
    {
      "inputs": [
        {
          "internalType": "bool",
          "name": "_alignmentVote",
          "type": "bool"
        }
      ],
      "name": "submitAlignmentVote",
      "outputs": [],
      "stateMutability": "nonpayable",
      "type": "function"
    },
    {
      "inputs": [
        {
          "internalType": "uint256",
          "name": "buttonIndex",
          "type": "uint256"
        }
      ],
      "name": "submitButtonInput",
      "outputs": [],
      "stateMutability": "nonpayable",
      "type": "function"
    },
    {
      "inputs": [
        {
          "internalType": "string",
          "name": "message",
          "type": "string"
        }
      ],
      "name": "submitChat",
      "outputs": [],
      "stateMutability": "nonpayable",
      "type": "function"
    },
    {
      "inputs": [
        {
          "internalType": "uint256",
          "name": "amount",
          "type": "uint256"
        }
      ],
      "name": "submitControlBid",
      "outputs": [],
      "stateMutability": "nonpayable",
      "type": "function"
    },
    {
      "inputs": [
        {
          "internalType": "uint256",
          "name": "count",
          "type": "uint256"
        }
      ],
      "name": "submitRareCandies",
      "outputs": [],
      "stateMutability": "nonpayable",
      "type": "function"
    },
    {
      "inputs": [
        {
          "internalType": "address",
          "name": "newOwner",
          "type": "address"
        }
      ],
      "name": "transferOwnership",
      "outputs": [],
      "stateMutability": "nonpayable",
      "type": "function"
    }
  ],
  "bytecode": {
    "object": "0x60806040523480156200001157600080fd5b5060405162001a3838038062001a388339810160408190526200003491620001cd565b6200003f3362000164565b600d80546001600160a01b03199081166001600160a01b0394851617909155600e805482169290931691909117909155604080516101808101825260018082526103d96020808401829052603c84860181905268022b1c8c1227a0000060608601819052601460808701819052601e60a088018190526801158e460913d0000060c0890181905260e089018190526101008901819052680ad78ebc5ac62000006101208a01819052605a6101408b01819052610160909a01839052885460ff19168917909855600296909655600393909355600491909155600555600681905560078390556008839055600992909255600a92909255600b92909255600c829055825180840190935260008084529201829052601d805490931690925590556200020c565b600080546001600160a01b038381166001600160a01b0319831681178455604051919092169283917f8be0079c531659141344cd1fd0a4f28419497f9722a3daafe3b4186f6b6457e09190a35050565b6001600160a01b0381168114620001ca57600080fd5b50565b60008060408385031215620001e157600080fd5b8251620001ee81620001b4565b60208401519092506200020181620001b4565b809150509250929050565b61181c806200021c6000396000f3fe608060405234801561001057600080fd5b50600436106101165760003560e01c806371e9a179116100a2578063cdfaa31911610071578063cdfaa3191461028e578063d670a54b14610296578063db944981146102a9578063f2fde38b146102bc578063f5636351146102cf57600080fd5b806371e9a179146101c05780638da5cb5b146101d3578063c3f909d4146101e4578063c8f31a7e1461027b57600080fd5b806348f6b1e4116100e957806348f6b1e41461018a5780634dad9a9814610193578063533f22e9146101a65780636722e844146101af578063715018a6146101b857600080fd5b8063181783581461011b578063333460a01461014b578063364af2511461016257806339c6505014610177575b600080fd5b600d5461012e906001600160a01b031681565b6040516001600160a01b0390911681526020015b60405180910390f35b61015460205481565b604051908152602001610142565b610175610170366004611355565b6102e2565b005b60215461012e906001600160a01b031681565b61015460125481565b6101756101a1366004611384565b610334565b610154601f5481565b610154600f5481565b610175610506565b6101756101ce366004611453565b61051a565b6000546001600160a01b031661012e565b6101ec610724565b604051610142919081511515815261018081016020830151602083015260408301516040830152606083015160608301526080830151608083015260a083015160a083015260c083015160c083015260e083015160e083015261010080840151818401525061012080840151818401525061014080840151818401525061016080840151818401525092915050565b610175610289366004611477565b610801565b6101756109ef565b6101756102a4366004611477565b610af5565b600e5461012e906001600160a01b031681565b6101756102ca366004611490565b610dd4565b6101756102dd366004611477565b610e52565b6102ea6112ab565b8060016102f782826114cc565b9050507fe86db7a726a5a2b2d5924cffbaca50a136c6340c6c098bb110905eb66679f73e816040516103299190611562565b60405180910390a150565b60015460ff166103565760405162a3097160e01b815260040160405180910390fd5b600e5460405163c3c5a54760e01b81523360048201526001600160a01b039091169063c3c5a54790602401602060405180830381865afa15801561039e573d6000803e3d6000fd5b505050506040513d601f19601f820116820180604052508101906103c291906115f6565b6103df57604051639704dd5160e01b815260040160405180910390fd5b600954600d546040516370a0823160e01b81523360048201526001600160a01b03909116906370a0823190602401602060405180830381865afa15801561042a573d6000803e3d6000fd5b505050506040513d601f19601f8201168201806040525081019061044e9190611613565b101561046d57604051634ed1b8c160e11b815260040160405180910390fd5b600d5460095460405163271292f560e01b815233600482015260248101919091526001600160a01b039091169063271292f590604401600060405180830381600087803b1580156104bd57600080fd5b505af11580156104d1573d6000803e3d6000fd5b505050507fb340a780aa2f0404bdbf7555dbf45a86c2e2d10b0c567c65039de68ddb63541e338260405161032992919061162c565b61050e6112ab565b6105186000611305565b565b60015460ff1661053c5760405162a3097160e01b815260040160405180910390fd5b600e5460405163c3c5a54760e01b81523360048201526001600160a01b039091169063c3c5a54790602401602060405180830381865afa158015610584573d6000803e3d6000fd5b505050506040513d601f19601f820116820180604052508101906105a891906115f6565b6105c557604051639704dd5160e01b815260040160405180910390fd5b600354336000908152601160205260409020546105e291906116a7565b42101561060257604051631c25210b60e01b815260040160405180910390fd5b8061067057600d5460048054604051634eb9029960e01b8152339281019290925260248201526001600160a01b0390911690634eb9029990604401600060405180830381600087803b15801561065757600080fd5b505af115801561066b573d6000803e3d6000fd5b505050505b600254601280546000906106859084906116bf565b925050819055506103e8601260008282546106a09190611744565b909155508190506106b4576103e7196106b8565b6103e85b601260008282546106c99190611780565b909155505033600081815260116020908152604091829020429055601254825193845284151591840191909152908201527fec4689ac7cb96555a466e474e8ac466c85156bdd896928ecae892e09bc03197890606001610329565b61078a60405180610180016040528060001515815260200160008152602001600081526020016000815260200160008152602001600081526020016000815260200160008152602001600081526020016000815260200160008152602001600081525090565b50604080516101808101825260015460ff16151581526002546020820152600354918101919091526004546060820152600554608082015260065460a082015260075460c082015260085460e0820152600954610100820152600a54610120820152600b54610140820152600c5461016082015290565b60015460ff166108235760405162a3097160e01b815260040160405180910390fd5b600e5460405163c3c5a54760e01b81523360048201526001600160a01b039091169063c3c5a54790602401602060405180830381865afa15801561086b573d6000803e3d6000fd5b505050506040513d601f19601f8201168201806040525081019061088f91906115f6565b6108ac57604051639704dd5160e01b815260040160405180910390fd5b600a546000906108bd9083906117c1565b600d546040516370a0823160e01b815233600482015291925082916001600160a01b03909116906370a0823190602401602060405180830381865afa15801561090a573d6000803e3d6000fd5b505050506040513d601f19601f8201168201806040525081019061092e9190611613565b101561094d57604051634ed1b8c160e11b815260040160405180910390fd5b600d5460405163271292f560e01b8152336004820152602481018390526001600160a01b039091169063271292f590604401600060405180830381600087803b15801561099957600080fd5b505af11580156109ad573d6000803e3d6000fd5b505060408051338152602081018690527fe4bede5da164adf827dcfd5d62217b69f6a2cf41d593c653dd86a82e9e8b4c31935001905060405180910390a15050565b60015460ff16610a115760405162a3097160e01b815260040160405180910390fd5b600b54601f54610a2191906116a7565b421015610a4157604051639bbb1f3b60e01b815260040160405180910390fd5b601d546001600160a01b0316610a6a576040516359a67b3d60e01b815260040160405180910390fd5b601d546040516001600160a01b0390911681527f0b75687d7c287ea65826131c74364e4e9d31c2645bd72097e93894c26c39072a9060200160405180910390a1601d8054602180546001600160a01b03199081166001600160a01b03841617909155604080518082019091526000808252602091820181905291909216909255601e91909155429055565b60015460ff16610b175760405162a3097160e01b815260040160405180910390fd5b600e5460405163c3c5a54760e01b81523360048201526001600160a01b039091169063c3c5a54790602401602060405180830381865afa158015610b5f573d6000803e3d6000fd5b505050506040513d601f19601f82011682018060405250810190610b8391906115f6565b610ba057604051639704dd5160e01b815260040160405180910390fd5b601d546001600160a01b0316610bb55742601f555b600b54601f54610bc591906116a7565b421115610be557604051635f0ae8b560e01b815260040160405180910390fd5b600d546040516370a0823160e01b815233600482015282916001600160a01b0316906370a0823190602401602060405180830381865afa158015610c2d573d6000803e3d6000fd5b505050506040513d601f19601f82011682018060405250810190610c519190611613565b1015610c7057604051633c3f8c0d60e01b815260040160405180910390fd5b601e548111610c925760405163ad25236560e01b815260040160405180910390fd5b601d546001600160a01b031615610d1057600d54601d54601e54604051634eb9029960e01b81526001600160a01b0392831660048201526024810191909152911690634eb9029990604401600060405180830381600087803b158015610cf757600080fd5b505af1158015610d0b573d6000803e3d6000fd5b505050505b600d5460405163271292f560e01b8152336004820152602481018390526001600160a01b039091169063271292f590604401600060405180830381600087803b158015610d5c57600080fd5b505af1158015610d70573d6000803e3d6000fd5b5050604080518082018252338082526020918201869052601d80546001600160a01b03191682179055601e86905582519081529081018590527fda7d5bef42a3248f526c7c18834855de4253d233c673d5fa9fc8cd386213b3ca9350019050610329565b610ddc6112ab565b6001600160a01b038116610e465760405162461bcd60e51b815260206004820152602660248201527f4f776e61626c653a206e6577206f776e657220697320746865207a65726f206160448201526564647265737360d01b60648201526084015b60405180910390fd5b610e4f81611305565b50565b60015460ff16610e745760405162a3097160e01b815260040160405180910390fd5b600e5460405163c3c5a54760e01b81523360048201526001600160a01b039091169063c3c5a54790602401602060405180830381865afa158015610ebc573d6000803e3d6000fd5b505050506040513d601f19601f82011682018060405250810190610ee091906115f6565b610efd57604051639704dd5160e01b815260040160405180910390fd5b6007811115610f1f57604051639a759aa960e01b815260040160405180910390fd5b600c54602054610f2f91906116a7565b4211610fbf576021546001600160a01b03163314610f60576040516304f4050760e31b815260040160405180910390fd5b42601055600f546040805191825233602083015281018290527f24da7c5d3db36b1d39dca8f80278b1d0ef5df897dca8cc740462b7bc3ebd7e9a906060015b60405180910390a1600f8054906000610fb7836117e0565b919050555050565b600060125413156111c95760138160088110610fdd57610fdd6117f9565b018054906000610fec836117e0565b909155505060055460105461100191906116a7565b42106110d75760008060005b600881101561107657816013826008811061102a5761102a6117f9565b0154111561104d5780925060138160088110611048576110486117f9565b015491505b600060138260088110611062576110626117f9565b01558061106e816117e0565b91505061100d565b5042601055600f546040805191825233602083015281018390527f24da7c5d3db36b1d39dca8f80278b1d0ef5df897dca8cc740462b7bc3ebd7e9a9060600160405180910390a1600f80549060006110cd836117e0565b9190505550505050565b336000908152601b6020526040902054600f540361110857604051630ba93b1f60e41b815260040160405180910390fd5b600f54336000818152601b60205260409081902092909255600d546008549251634eb9029960e01b8152600481019290925260248201929092526001600160a01b0390911690634eb9029990604401600060405180830381600087803b15801561117157600080fd5b505af1158015611185573d6000803e3d6000fd5b5050600f546040805191825233602083015281018490527ff3a80ef742f353daea721b8a331d1608b95f3742cab2bb96c4e19a0e687c214192506060019050610329565b600654336000908152601c60205260409020546111e691906116a7565b421115610f6057336000818152601c602052604090819020429055600d546007549151634eb9029960e01b8152600481019390935260248301919091526001600160a01b031690634eb9029990604401600060405180830381600087803b15801561125057600080fd5b505af1158015611264573d6000803e3d6000fd5b5050505042601055600f546040805191825233602083015281018290527f24da7c5d3db36b1d39dca8f80278b1d0ef5df897dca8cc740462b7bc3ebd7e9a90606001610f9f565b6000546001600160a01b031633146105185760405162461bcd60e51b815260206004820181905260248201527f4f776e61626c653a2063616c6c6572206973206e6f7420746865206f776e65726044820152606401610e3d565b600080546001600160a01b038381166001600160a01b0319831681178455604051919092169283917f8be0079c531659141344cd1fd0a4f28419497f9722a3daafe3b4186f6b6457e09190a35050565b6000610180828403121561136857600080fd5b50919050565b634e487b7160e01b600052604160045260246000fd5b60006020828403121561139657600080fd5b813567ffffffffffffffff808211156113ae57600080fd5b818401915084601f8301126113c257600080fd5b8135818111156113d4576113d461136e565b604051601f8201601f19908116603f011681019083821181831017156113fc576113fc61136e565b8160405282815287602084870101111561141557600080fd5b826020860160208301376000928101602001929092525095945050505050565b8015158114610e4f57600080fd5b803561144e81611435565b919050565b60006020828403121561146557600080fd5b813561147081611435565b9392505050565b60006020828403121561148957600080fd5b5035919050565b6000602082840312156114a257600080fd5b81356001600160a01b038116811461147057600080fd5b600081356114c681611435565b92915050565b6114ec6114d8836114b9565b825490151560ff1660ff1991909116178255565b6020820135600182015560408201356002820155606082013560038201556080820135600482015560a0820135600582015560c0820135600682015560e0820135600782015561010082013560088201556101208201356009820155610140820135600a820155610160820135600b8201555050565b610180810161157a8261157485611443565b15159052565b6020830135602083015260408301356040830152606083013560608301526080830135608083015260a083013560a083015260c083013560c083015260e083013560e083015261010080840135818401525061012080840135818401525061014080840135818401525061016080840135818401525092915050565b60006020828403121561160857600080fd5b815161147081611435565b60006020828403121561162557600080fd5b5051919050565b60018060a01b038316815260006020604081840152835180604085015260005b818110156116685785810183015185820160600152820161164c565b8181111561167a576000606083870101525b50601f01601f191692909201606001949350505050565b634e487b7160e01b600052601160045260246000fd5b600082198211156116ba576116ba611691565b500190565b60006001600160ff1b03818413828413808216868404861116156116e5576116e5611691565b600160ff1b600087128281168783058912161561170457611704611691565b6000871292508782058712848416161561172057611720611691565b8785058712818416161561173657611736611691565b505050929093029392505050565b60008261176157634e487b7160e01b600052601260045260246000fd5b600160ff1b82146000198414161561177b5761177b611691565b500590565b600080821280156001600160ff1b03849003851316156117a2576117a2611691565b600160ff1b83900384128116156117bb576117bb611691565b50500190565b60008160001904831182151516156117db576117db611691565b500290565b6000600182016117f2576117f2611691565b5060010190565b634e487b7160e01b600052603260045260246000fdfea164736f6c634300080d000a",
    "linkReferences": {}
  },
  "methodIdentifiers": {
    "alignment()": "48f6b1e4",
    "controlAddress()": "39c65050",
    "controlAuctionEndTimestamp()": "333460a0",
    "controlAuctionStartTimestamp()": "533f22e9",
    "endControlAuction()": "cdfaa319",
    "getConfig()": "c3f909d4",
    "inputIndex()": "6722e844",
    "owner()": "8da5cb5b",
    "poke()": "18178358",
    "registryReceiver()": "db944981",
    "renounceOwnership()": "715018a6",
    "setConfig((bool,uint256,uint256,uint256,uint256,uint256,uint256,uint256,uint256,uint256,uint256,uint256))": "364af251",
    "submitAlignmentVote(bool)": "71e9a179",
    "submitButtonInput(uint256)": "f5636351",
    "submitChat(string)": "4dad9a98",
    "submitControlBid(uint256)": "d670a54b",
    "submitRareCandies(uint256)": "c8f31a7e",
    "transferOwnership(address)": "f2fde38b"
  },
  "id": 5
}